1019999                1501121106A094101TEST                   TEST                   TEST    
5200TEST                                          WEBTEST      150112150112   1999     1      
6220764012519999             0001234.569999           test                    1999            
705test                                                                            1   999    
82000000027640125   000000000000000001234.56TEST                               999     1      
9000001000006000000027640125   000000000000000000000000                                       