101  33695916          1503182153A094101BerosbidbdiambababutbdiBdiambeubaburnaba      Bduisbad
5200Begetbutbaba                                  BorBquambadba150318150318   1Beratbat0000001
622274364637148765731        0812494229601918816      Begetbvebabsed          1Beratbatbalique
705Bquisbat                                                                        1   Beratba
8200000002274364639 000000000000000812494229                                   Beratbat0000001
900000100000100000002274364639 000000000000000812494229                                       
9999999999999999999999999999999999999999999999999999999999999999999999999999999999999999999999
9999999999999999999999999999999999999999999999999999999999999999999999999999999999999999999999
9999999999999999999999999999999999999999999999999999999999999999999999999999999999999999999999
9999999999999999999999999999999999999999999999999999999999999999999999999999999999999999999999