101876116371           1503021051A094101B'nunc' b've' b'a' b'urB'enim' b'in' b'a'.    B'odio' 
5200B'eget' b've' b'                              B'dB'orci' b'150302150302   1B'eget' 0000001
62281657590716900683         0106494928765140631      B'erat' b'et' b'a' b'a  1B'eget' b've' b
705B'eget' b'ad'.                                                                  1   B'eget'
8200000002816575909 000000000000001064949280B'eget' b'                         B'eget' 0000001
900000100000600000002816575909 000000000000001064949280                                       